:100000000C942A000C9447000C9447000C94470071
:100010000C9447000C9447000C9447000C94470044
:100020000C9447000C9447000C9447000C94470034
:100030000C9447000C9447000C9447000C94470024
:100040000C9447000C9447000C9447000C94470014
:100050000C94470011241FBECFE5D4E0DEBFCDBF16
:1000600010E0A0E6B0E0EAE5F5E002C005900D92F0
:10007000A23FB107D9F710E0A2EFB0E001C01D9296
:10008000AD3FB107E1F70E944B010C94AB020C9419
:100090000000282F207F28BBC298C39A20ED37E0AC
:1000A000F9013197F1F7C398F9013197F1F790E031
:1000B00044E0880F991F4A95E1F788BBC298C39A1C
:1000C000C9010197F1F7C398C9010197F1F70895A4
:1000D00082E090E00E94490088E290E00E9449009E
:1000E00086E090E00E9449008CE090E00E94490088
:1000F0000895282F207F28BBC29AC39A20ED37E0AD
:10010000F9013197F1F7C398F9013197F1F790E0D0
:1001100054E0880F991F5A95E1F788BBC29AC39A99
:10012000C9010197F1F7C398C9010197F1F7089543
:1001300081E00E94490080ED97E00197F1F7089572
:100140001F93CF93DF93EC0110E003C00E9479006E
:100150001F5FFE01E10FF11D80818823B9F7DF9158
:10016000CF911F910895CF93DF93EC0184E00E941B
:100170004900209791F480E30E9479000EC0CE01DF
:100180006AE070E00E949702805D0E947900CE01D3
:100190006AE070E00E949702EB01209781F786E009
:1001A0000E944900DF91CF910895FEE040E25EE4B5
:1001B000EDE020E137E27BE067E0F2BBCA010197A6
:1001C000F1F7C89902C087E30895C99904C0C99B93
:1001D000FECF84E30895CA9904C0CA9BFECF81E391
:1001E0000895CB9904C0CB9BFECF80E40895E2BB79
:1001F000C9010197F1F7C89904C0C89BFECF88E3F5
:100200000895C99904C0C99BFECF85E30895CA9992
:1002100004C0CA9BFECF82E30895CB9904C0CB9B58
:10022000FECF80E3089572BBC9010197F1F7C89929
:1002300004C0C89BFECF89E30895C99904C0C99B37
:10024000FECF86E30895CA9904C0CA9BFECF83E31C
:100250000895CB9904C0CB9BFECF8DE3089562BB7C
:10026000C9010197F1F7C89904C0C89BFECF8FE27E
:100270000895C99904C0C99BFECF88E70895CA991B
:1002800004C0CA9BFECF8DE20895CB9996CFCB9B3D
:10029000FECF8BE20895CF92DF92EF92FF920F9301
:1002A0001F93CF93DF931ABA8FEF81BB84BB8BBBB5
:1002B00087BB0E94680008EC10E0E1E0EE2EF12C14
:1002C00070E5D72E60EAC62E80E80E94490080E6DD
:1002D00090E00E94A00080EC0E9449008BE690E034
:1002E0000E94A00084EF91E0F8013197F1F70197A7
:1002F000D9F70E949800C0E0D0E00E94D500FE012E
:10030000E850FF4F8083209731F481E00E9449003C
:1003100080E20E9479008AE20E9479002196C5302D
:10032000D10559F79091F8008091EA009817E9F407
:100330009091F9008091EB009817B9F49091FA0030
:100340008091EC00981789F49091FB008091ED006A
:10035000981759F49091FC008091EE00981729F4B9
:10036000F092F000E092EF0004C01092F0001092C2
:10037000EF008091EF009091F0008130910509F03D
:100380009AC00E94980080E80E94490084E790E0AB
:100390000E94A00080EC0E94490085E890E00E9445
:1003A000A00084EF91E0F8013197F1F70197D9F7B8
:1003B0000E9498000E94D5000E94790088EE93E088
:1003C000F8013197F1F70197D9F70E94D500809392
:1003D000F4001092F5000E9479008091F400909151
:1003E000F500C29791F480E80E94490084E990E00A
:1003F0000E94A000C5BA88EE93E0F8013197F1F7AA
:100400000197D9F715BA0E9498008091F400909155
:10041000F500C49799F480E80E94490082EA90E0D0
:100420000E94A00080E285BB88EE93E0F80131973E
:10043000F1F70197D9F715BA0E9498008091F4005E
:100440009091F500C69799F480E80E9449008EEAE1
:1004500090E00E94A00080E885BB88EE93E0F80160
:100460003197F1F70197D9F715BA0E94980080915A
:10047000F4009091F500C89791F480E80E9449003B
:1004800089EB90E00E94A000D5BA88EE93E0F801D5
:100490003197F1F70197D9F715BA0E949800109299
:1004A000F3001092F20088EE93E0F8013197F1F733
:1004B0000197D9F709CF892B09F006CF8091F20077
:1004C0009091F30001969093F3008093F2000E94C4
:1004D000980080E80E94490088EC90E00E94A0000B
:1004E00080EC0E94490086ED90E00E94A00088EE1A
:1004F00093E0F8013197F1F70197D9F70E9498003E
:10050000F092F000E092EF008091F2009091F30001
:10051000039709F0D9CE0E94980080E80E94490014
:1005200084EE90E00E94A0000E949800CDCEAA1B0D
:10053000BB1B51E107C0AA1FBB1FA617B70710F0CE
:10054000A61BB70B881F991F5A95A9F78095909500
:0A055000BC01CD010895F894FFCF1F
:10055A00454E54455220594F555200504153535716
:10056A004F52440050415353574F5244204D415427
:10057A004348454400616363657373206772616E23
:10058A00746564006D6F746F7220666F7277617242
:10059A0064006D6F746F72207269676874006D6FA2
:1005AA00746F72206C656674006D6F746F7220626E
:1005BA0061636B776172640077726F6E6720706136
:1005CA0073776F7264006163636573732064656E29
:1005DA00696564006572726F7200313233343501B5
:0205EA0000000F
:00000001FF
